{
  "contractName": "Certification",
  "abi": [
    {
      "anonymous": false,
      "inputs": [
        {
          "indexed": false,
          "internalType": "bytes32",
          "name": "_ID",
          "type": "bytes32"
        }
      ],
      "name": "certificateGenerate",
      "type": "event"
    },
    {
      "constant": true,
      "inputs": [
        {
          "internalType": "bytes32",
          "name": "",
          "type": "bytes32"
        }
      ],
      "name": "certificates",
      "outputs": [
        {
          "internalType": "string",
          "name": "display_name",
          "type": "string"
        },
        {
          "internalType": "string",
          "name": "org_name",
          "type": "string"
        },
        {
          "internalType": "string",
          "name": "course_name",
          "type": "string"
        }
      ],
      "payable": false,
      "stateMutability": "view",
      "type": "function"
    },
    {
      "constant": false,
      "inputs": [
        {
          "internalType": "string",
          "name": "_id",
          "type": "string"
        },
        {
          "internalType": "string",
          "name": "_display_name",
          "type": "string"
        },
        {
          "internalType": "string",
          "name": "_org_name",
          "type": "string"
        },
        {
          "internalType": "string",
          "name": "_course_name",
          "type": "string"
        }
      ],
      "name": "generateCertificate",
      "outputs": [],
      "payable": false,
      "stateMutability": "nonpayable",
      "type": "function"
    },
    {
      "constant": true,
      "inputs": [
        {
          "internalType": "string",
          "name": "_id",
          "type": "string"
        }
      ],
      "name": "getData",
      "outputs": [
        {
          "internalType": "string",
          "name": "",
          "type": "string"
        },
        {
          "internalType": "string",
          "name": "",
          "type": "string"
        },
        {
          "internalType": "string",
          "name": "",
          "type": "string"
        }
      ],
      "payable": false,
      "stateMutability": "view",
      "type": "function"
    }
  ],
  "bytecode": "0x608060405234801561001057600080fd5b50610c81806100206000396000f3fe608060405234801561001057600080fd5b50600436106100415760003560e01c8063742f068814610046578063a95ef4f0146101c5578063ae55c88814610445575b600080fd5b6100726004803603602081101561005c57600080fd5b8101908080359060200190929190505050610651565b60405180806020018060200180602001848103845287818151815260200191508051906020019080838360005b838110156100ba57808201518184015260208101905061009f565b50505050905090810190601f1680156100e75780820380516001836020036101000a031916815260200191505b50848103835286818151815260200191508051906020019080838360005b83811015610120578082015181840152602081019050610105565b50505050905090810190601f16801561014d5780820380516001836020036101000a031916815260200191505b50848103825285818151815260200191508051906020019080838360005b8381101561018657808201518184015260208101905061016b565b50505050905090810190601f1680156101b35780820380516001836020036101000a031916815260200191505b50965050505050505060405180910390f35b610443600480360360808110156101db57600080fd5b81019080803590602001906401000000008111156101f857600080fd5b82018360208201111561020a57600080fd5b8035906020019184600183028401116401000000008311171561022c57600080fd5b91908080601f016020809104026020016040519081016040528093929190818152602001838380828437600081840152601f19601f8201169050808301925050505050505091929192908035906020019064010000000081111561028f57600080fd5b8201836020820111156102a157600080fd5b803590602001918460018302840111640100000000831117156102c357600080fd5b91908080601f016020809104026020016040519081016040528093929190818152602001838380828437600081840152601f19601f8201169050808301925050505050505091929192908035906020019064010000000081111561032657600080fd5b82018360208201111561033857600080fd5b8035906020019184600183028401116401000000008311171561035a57600080fd5b91908080601f016020809104026020016040519081016040528093929190818152602001838380828437600081840152601f19601f820116905080830192505050505050509192919290803590602001906401000000008111156103bd57600080fd5b8201836020820111156103cf57600080fd5b803590602001918460018302840111640100000000831117156103f157600080fd5b91908080601f016020809104026020016040519081016040528093929190818152602001838380828437600081840152601f19601f820116905080830192505050505050509192919290505050610843565b005b6104fe6004803603602081101561045b57600080fd5b810190808035906020019064010000000081111561047857600080fd5b82018360208201111561048a57600080fd5b803590602001918460018302840111640100000000831117156104ac57600080fd5b91908080601f016020809104026020016040519081016040528093929190818152602001838380828437600081840152601f19601f820116905080830192505050505050509192919290505050610915565b60405180806020018060200180602001848103845287818151815260200191508051906020019080838360005b8381101561054657808201518184015260208101905061052b565b50505050905090810190601f1680156105735780820380516001836020036101000a031916815260200191505b50848103835286818151815260200191508051906020019080838360005b838110156105ac578082015181840152602081019050610591565b50505050905090810190601f1680156105d95780820380516001836020036101000a031916815260200191505b50848103825285818151815260200191508051906020019080838360005b838110156106125780820151818401526020810190506105f7565b50505050905090810190601f16801561063f5780820380516001836020036101000a031916815260200191505b50965050505050505060405180910390f35b6000602052806000526040600020600091509050806000018054600181600116156101000203166002900480601f0160208091040260200160405190810160405280929190818152602001828054600181600116156101000203166002900480156106fd5780601f106106d2576101008083540402835291602001916106fd565b820191906000526020600020905b8154815290600101906020018083116106e057829003601f168201915b505050505090806001018054600181600116156101000203166002900480601f01602080910402602001604051908101604052809291908181526020018280546001816001161561010002031660029004801561079b5780601f106107705761010080835404028352916020019161079b565b820191906000526020600020905b81548152906001019060200180831161077e57829003601f168201915b505050505090806002018054600181600116156101000203166002900480601f0160208091040260200160405190810160405280929190818152602001828054600181600116156101000203166002900480156108395780601f1061080e57610100808354040283529160200191610839565b820191906000526020600020905b81548152906001019060200180831161081c57829003601f168201915b5050505050905083565b600061084e85610b5b565b90506040518060600160405280858152602001848152602001838152506000808381526020019081526020016000206000820151816000019080519060200190610899929190610b86565b5060208201518160010190805190602001906108b6929190610b86565b5060408201518160020190805190602001906108d3929190610b86565b509050507f8fd4e8b10358ad21e157988fc7e839196a3caf7abada63ecfb6d549946a45bc3816040518082815260200191505060405180910390a15050505050565b6060806060600061092585610b5b565b905061092f610c06565b600080838152602001908152602001600020604051806060016040529081600082018054600181600116156101000203166002900480601f0160208091040260200160405190810160405280929190818152602001828054600181600116156101000203166002900480156109e55780601f106109ba576101008083540402835291602001916109e5565b820191906000526020600020905b8154815290600101906020018083116109c857829003601f168201915b50505050508152602001600182018054600181600116156101000203166002900480601f016020809104026020016040519081016040528092919081815260200182805460018160011615610100020316600290048015610a875780601f10610a5c57610100808354040283529160200191610a87565b820191906000526020600020905b815481529060010190602001808311610a6a57829003601f168201915b50505050508152602001600282018054600181600116156101000203166002900480601f016020809104026020016040519081016040528092919081815260200182805460018160011615610100020316600290048015610b295780601f10610afe57610100808354040283529160200191610b29565b820191906000526020600020905b815481529060010190602001808311610b0c57829003601f168201915b505050505081525050905080600001518160200151826040015182925081915080905094509450945050509193909250565b60006060829050600081511415610b78576000801b915050610b81565b60208301519150505b919050565b828054600181600116156101000203166002900490600052602060002090601f016020900481019282601f10610bc757805160ff1916838001178555610bf5565b82800160010185558215610bf5579182015b82811115610bf4578251825591602001919060010190610bd9565b5b509050610c029190610c27565b5090565b60405180606001604052806060815260200160608152602001606081525090565b610c4991905b80821115610c45576000816000905550600101610c2d565b5090565b9056fea265627a7a723158204814dde3cefb22923a2135ce71b0b81f24c87fee9740e8123c003dc53b29b83f64736f6c63430005100032",
  "source": "pragma solidity ^0.5.0;\r\n\r\ncontract Certification{\r\n    struct Certificate{\r\n        string display_name;\r\n        string org_name;\r\n        string course_name;\r\n    }\r\n\r\n    mapping(bytes32 => Certificate)public certificates;\r\n\r\n    event certificateGenerate(bytes32 _ID);\r\n\r\n    function convert(string memory source)private pure returns(bytes32 result) {\r\n        bytes memory tempempty=bytes(source);\r\n        if(tempempty.length==0){\r\n            return 0x0;\r\n        }\r\n        assembly{\r\n            result:=mload(add(source,32))\r\n        }\r\n    }\r\n\r\n    function generateCertificate(\r\n        string memory _id,\r\n        string memory _display_name,\r\n        string memory _org_name,\r\n        string memory _course_name)public{\r\n            bytes32 byte_id = convert(_id);\r\n            certificates[byte_id]=Certificate(_display_name,_org_name,_course_name) ;\r\n            emit certificateGenerate(byte_id);\r\n        }\r\n\r\n    function getData(string memory _id)public view returns(string memory,string memory,string memory){\r\n        bytes32 byte_id = convert(_id);\r\n        Certificate memory temp = certificates[byte_id];\r\n        return(temp.display_name,temp.org_name,temp.course_name);\r\n    }\r\n\r\n}",
  "sourcePath": "C:/Users/Nikhil/Desktop/Marketplace/Blockchain--Ethereum--Certicate-Creator/src/contracts/Certification.sol",
  "compiler": {
    "name": "solc",
    "version": "0.5.16+commit.9c3226ce.Emscripten.clang"
  },
  "schemaVersion": "3.2.2",
  "updatedAt": "2020-08-27T04:34:56.944Z",
  "devdoc": {
    "methods": {}
  },
  "userdoc": {
    "methods": {}
  }
}