{
  "contractName": "Certification",
  "abi": [
    {
      "inputs": [],
      "payable": false,
      "stateMutability": "nonpayable",
      "type": "constructor"
    },
    {
      "anonymous": false,
      "inputs": [
        {
          "indexed": false,
          "internalType": "string",
          "name": "name",
          "type": "string"
        },
        {
          "indexed": false,
          "internalType": "string",
          "name": "orgName",
          "type": "string"
        },
        {
          "indexed": false,
          "internalType": "string",
          "name": "courseName",
          "type": "string"
        },
        {
          "indexed": false,
          "internalType": "address payable",
          "name": "owner",
          "type": "address"
        }
      ],
      "name": "CertificateGenerated",
      "type": "event"
    },
    {
      "anonymous": false,
      "inputs": [
        {
          "indexed": false,
          "internalType": "uint256",
          "name": "id",
          "type": "uint256"
        }
      ],
      "name": "certificateGenerate",
      "type": "event"
    },
    {
      "constant": true,
      "inputs": [
        {
          "internalType": "uint256",
          "name": "",
          "type": "uint256"
        }
      ],
      "name": "certificates",
      "outputs": [
        {
          "internalType": "string",
          "name": "display_name",
          "type": "string"
        },
        {
          "internalType": "string",
          "name": "org_name",
          "type": "string"
        },
        {
          "internalType": "string",
          "name": "course_name",
          "type": "string"
        },
        {
          "internalType": "address payable",
          "name": "owner",
          "type": "address"
        }
      ],
      "payable": false,
      "stateMutability": "view",
      "type": "function"
    },
    {
      "constant": true,
      "inputs": [],
      "name": "id",
      "outputs": [
        {
          "internalType": "uint256",
          "name": "",
          "type": "uint256"
        }
      ],
      "payable": false,
      "stateMutability": "view",
      "type": "function"
    },
    {
      "constant": true,
      "inputs": [],
      "name": "name",
      "outputs": [
        {
          "internalType": "string",
          "name": "",
          "type": "string"
        }
      ],
      "payable": false,
      "stateMutability": "view",
      "type": "function"
    },
    {
      "constant": false,
      "inputs": [
        {
          "internalType": "string",
          "name": "_name",
          "type": "string"
        },
        {
          "internalType": "string",
          "name": "org_name",
          "type": "string"
        },
        {
          "internalType": "string",
          "name": "course_name",
          "type": "string"
        }
      ],
      "name": "generatecertificate",
      "outputs": [],
      "payable": false,
      "stateMutability": "nonpayable",
      "type": "function"
    }
  ],
  "bytecode": "0x6080604052600060025534801561001557600080fd5b506040518060400160405280600f81526020017f4e696b68696c204b756c6b61726e69000000000000000000000000000000000081525060009080519060200190610061929190610067565b5061010c565b828054600181600116156101000203166002900490600052602060002090601f016020900481019282601f106100a857805160ff19168380011785556100d6565b828001600101855582156100d6579182015b828111156100d55782518255916020019190600101906100ba565b5b5090506100e391906100e7565b5090565b61010991905b808211156101055760008160009055506001016100ed565b5090565b90565b610afb8061011b6000396000f3fe608060405234801561001057600080fd5b506004361061004c5760003560e01c806306fdde0314610051578063663b3e22146100d4578063af640d0f14610286578063d35ae880146102a4575b600080fd5b61005961048d565b6040518080602001828103825283818151815260200191508051906020019080838360005b8381101561009957808201518184015260208101905061007e565b50505050905090810190601f1680156100c65780820380516001836020036101000a031916815260200191505b509250505060405180910390f35b610100600480360360208110156100ea57600080fd5b810190808035906020019092919050505061052b565b604051808060200180602001806020018573ffffffffffffffffffffffffffffffffffffffff1673ffffffffffffffffffffffffffffffffffffffff168152602001848103845288818151815260200191508051906020019080838360005b8381101561017a57808201518184015260208101905061015f565b50505050905090810190601f1680156101a75780820380516001836020036101000a031916815260200191505b50848103835287818151815260200191508051906020019080838360005b838110156101e05780820151818401526020810190506101c5565b50505050905090810190601f16801561020d5780820380516001836020036101000a031916815260200191505b50848103825286818151815260200191508051906020019080838360005b8381101561024657808201518184015260208101905061022b565b50505050905090810190601f1680156102735780820380516001836020036101000a031916815260200191505b5097505050505050505060405180910390f35b61028e610743565b6040518082815260200191505060405180910390f35b61048b600480360360608110156102ba57600080fd5b81019080803590602001906401000000008111156102d757600080fd5b8201836020820111156102e957600080fd5b8035906020019184600183028401116401000000008311171561030b57600080fd5b91908080601f016020809104026020016040519081016040528093929190818152602001838380828437600081840152601f19601f8201169050808301925050505050505091929192908035906020019064010000000081111561036e57600080fd5b82018360208201111561038057600080fd5b803590602001918460018302840111640100000000831117156103a257600080fd5b91908080601f016020809104026020016040519081016040528093929190818152602001838380828437600081840152601f19601f8201169050808301925050505050505091929192908035906020019064010000000081111561040557600080fd5b82018360208201111561041757600080fd5b8035906020019184600183028401116401000000008311171561043957600080fd5b91908080601f016020809104026020016040519081016040528093929190818152602001838380828437600081840152601f19601f820116905080830192505050505050509192919290505050610749565b005b60008054600181600116156101000203166002900480601f0160208091040260200160405190810160405280929190818152602001828054600181600116156101000203166002900480156105235780601f106104f857610100808354040283529160200191610523565b820191906000526020600020905b81548152906001019060200180831161050657829003601f168201915b505050505081565b6001602052806000526040600020600091509050806000018054600181600116156101000203166002900480601f0160208091040260200160405190810160405280929190818152602001828054600181600116156101000203166002900480156105d75780601f106105ac576101008083540402835291602001916105d7565b820191906000526020600020905b8154815290600101906020018083116105ba57829003601f168201915b505050505090806001018054600181600116156101000203166002900480601f0160208091040260200160405190810160405280929190818152602001828054600181600116156101000203166002900480156106755780601f1061064a57610100808354040283529160200191610675565b820191906000526020600020905b81548152906001019060200180831161065857829003601f168201915b505050505090806002018054600181600116156101000203166002900480601f0160208091040260200160405190810160405280929190818152602001828054600181600116156101000203166002900480156107135780601f106106e857610100808354040283529160200191610713565b820191906000526020600020905b8154815290600101906020018083116106f657829003601f168201915b5050505050908060030160009054906101000a900473ffffffffffffffffffffffffffffffffffffffff16905084565b60025481565b600083511161075757600080fd5b600082511161076557600080fd5b600081511161077357600080fd5b60026000815480929190600101919050555060405180608001604052808481526020018381526020018281526020013373ffffffffffffffffffffffffffffffffffffffff1681525060016000600254815260200190815260200160002060008201518160000190805190602001906107ed929190610a21565b50602082015181600101908051906020019061080a929190610a21565b506040820151816002019080519060200190610827929190610a21565b5060608201518160030160006101000a81548173ffffffffffffffffffffffffffffffffffffffff021916908373ffffffffffffffffffffffffffffffffffffffff1602179055509050507f9ceb100a61e1bf242b723717e6dfcc4cb99747ae16e4e969b0f5a4b8b1cca34183838333604051808060200180602001806020018573ffffffffffffffffffffffffffffffffffffffff1673ffffffffffffffffffffffffffffffffffffffff168152602001848103845288818151815260200191508051906020019080838360005b838110156109115780820151818401526020810190506108f6565b50505050905090810190601f16801561093e5780820380516001836020036101000a031916815260200191505b50848103835287818151815260200191508051906020019080838360005b8381101561097757808201518184015260208101905061095c565b50505050905090810190601f1680156109a45780820380516001836020036101000a031916815260200191505b50848103825286818151815260200191508051906020019080838360005b838110156109dd5780820151818401526020810190506109c2565b50505050905090810190601f168015610a0a5780820380516001836020036101000a031916815260200191505b5097505050505050505060405180910390a1505050565b828054600181600116156101000203166002900490600052602060002090601f016020900481019282601f10610a6257805160ff1916838001178555610a90565b82800160010185558215610a90579182015b82811115610a8f578251825591602001919060010190610a74565b5b509050610a9d9190610aa1565b5090565b610ac391905b80821115610abf576000816000905550600101610aa7565b5090565b9056fea265627a7a72315820f06501ee0c9511e91eba94f7b9de0dc0a1550011e79473f08077daca53ee91e764736f6c63430005100032",
  "source": "pragma solidity ^0.5.0;\r\n\r\ncontract Certification{\r\n    string public name;\r\n    mapping(uint => Certificate)public certificates;\r\n\r\n    struct Certificate{\r\n        //uint id;\r\n        string display_name;\r\n        string org_name;\r\n        string course_name;\r\n        address payable owner;\r\n    }\r\n    uint public id = 0;\r\n    constructor()public{\r\n     name=\"Nikhil Kulkarni\";   \r\n    }\r\n\r\n    event certificateGenerate(uint id);\r\n\r\n    /* function convert(string memory source)private pure returns(bytes32 result) {\r\n        bytes memory tempempty=bytes(source);\r\n        if(tempempty.length==0){\r\n            return 0x0;\r\n        }\r\n        assembly{\r\n            result:=mload(add(source,32))\r\n        } */\r\n    \r\n    event CertificateGenerated(\r\n        \r\n        string name,\r\n        string orgName,\r\n        string courseName,\r\n        address payable owner\r\n        \r\n    );\r\n/*  /\r\n    function generateCertificate(\r\n        \r\n        string memory _display_name,\r\n        string memory _org_name,\r\n        string memory _course_name)public{\r\n           require(bytes(_display_name).length > 0);\r\n        require(bytes(_org_name).length > 0);\r\n        require(bytes(_course_name).length > 0);\r\n        id ++;\r\n       // certificates[id] = Certificate(_display_name, _org_name, _course_name, msg.sender);\r\n        emit CertificateGenerated(_display_name, _org_name, _course_name, msg.sender);(id,_display_name, _org_name, _course_name, msg.sender);\r\n            \r\n            } */\r\n\r\n\r\n\r\n\r\n\r\n        function generatecertificate(string memory _name,string memory org_name,string memory course_name)public{\r\n            require(bytes(_name).length > 0);\r\n        require(bytes(org_name).length > 0);\r\n        require(bytes(course_name).length > 0);\r\n            id++;\r\n           certificates[id]=  Certificate(_name,org_name,course_name,msg.sender);\r\n            emit CertificateGenerated(_name, org_name, course_name, msg.sender);\r\n        }\r\n   \r\n\r\n}",
  "sourcePath": "C:/Users/Nikhil/Desktop/Marketplace/Blockchain--Ethereum--Certicate-Creator/src/contracts/Certification.sol",
  "compiler": {
    "name": "solc",
    "version": "0.5.16+commit.9c3226ce.Emscripten.clang"
  },
  "schemaVersion": "3.2.2",
  "updatedAt": "2020-10-02T04:44:09.188Z",
  "networkType": "ethereum",
  "devdoc": {
    "methods": {}
  },
  "userdoc": {
    "methods": {}
  }
}